{
  "_format": "hh-sol-artifact-1",
  "contractName": "CredentialRegistry",
  "sourceName": "contracts/CredentialRegistry.sol",
  "abi": [
    {
      "inputs": [
        {
          "internalType": "address",
          "name": "_issuerRegistry",
          "type": "address"
        }
      ],
      "stateMutability": "nonpayable",
      "type": "constructor"
    },
    {
      "anonymous": false,
      "inputs": [
        {
          "indexed": true,
          "internalType": "bytes32",
          "name": "credentialHash",
          "type": "bytes32"
        },
        {
          "indexed": true,
          "internalType": "address",
          "name": "issuer",
          "type": "address"
        },
        {
          "indexed": false,
          "internalType": "string",
          "name": "credentialId",
          "type": "string"
        },
        {
          "indexed": false,
          "internalType": "uint256",
          "name": "timestamp",
          "type": "uint256"
        }
      ],
      "name": "CredentialIssued",
      "type": "event"
    },
    {
      "anonymous": false,
      "inputs": [
        {
          "indexed": true,
          "internalType": "bytes32",
          "name": "credentialHash",
          "type": "bytes32"
        },
        {
          "indexed": true,
          "internalType": "address",
          "name": "revokedBy",
          "type": "address"
        },
        {
          "indexed": false,
          "internalType": "string",
          "name": "reason",
          "type": "string"
        },
        {
          "indexed": false,
          "internalType": "uint256",
          "name": "timestamp",
          "type": "uint256"
        }
      ],
      "name": "CredentialRevoked",
      "type": "event"
    },
    {
      "inputs": [
        {
          "internalType": "bytes32",
          "name": "credentialHash",
          "type": "bytes32"
        },
        {
          "internalType": "address",
          "name": "issuer",
          "type": "address"
        },
        {
          "internalType": "string",
          "name": "credentialId",
          "type": "string"
        }
      ],
      "name": "issueCredential",
      "outputs": [],
      "stateMutability": "nonpayable",
      "type": "function"
    },
    {
      "inputs": [],
      "name": "issuerRegistry",
      "outputs": [
        {
          "internalType": "contract IssuerRegistry",
          "name": "",
          "type": "address"
        }
      ],
      "stateMutability": "view",
      "type": "function"
    },
    {
      "inputs": [],
      "name": "owner",
      "outputs": [
        {
          "internalType": "address",
          "name": "",
          "type": "address"
        }
      ],
      "stateMutability": "view",
      "type": "function"
    },
    {
      "inputs": [
        {
          "internalType": "bytes32",
          "name": "credentialHash",
          "type": "bytes32"
        },
        {
          "internalType": "string",
          "name": "reason",
          "type": "string"
        }
      ],
      "name": "revokeCredential",
      "outputs": [],
      "stateMutability": "nonpayable",
      "type": "function"
    },
    {
      "inputs": [
        {
          "internalType": "address",
          "name": "newOwner",
          "type": "address"
        }
      ],
      "name": "transferOwnership",
      "outputs": [],
      "stateMutability": "nonpayable",
      "type": "function"
    },
    {
      "inputs": [
        {
          "internalType": "address",
          "name": "_issuerRegistry",
          "type": "address"
        }
      ],
      "name": "updateIssuerRegistry",
      "outputs": [],
      "stateMutability": "nonpayable",
      "type": "function"
    },
    {
      "inputs": [
        {
          "internalType": "bytes32",
          "name": "credentialHash",
          "type": "bytes32"
        }
      ],
      "name": "verifyCredential",
      "outputs": [
        {
          "internalType": "bool",
          "name": "exists",
          "type": "bool"
        },
        {
          "internalType": "bool",
          "name": "isRevoked",
          "type": "bool"
        },
        {
          "internalType": "address",
          "name": "issuer",
          "type": "address"
        },
        {
          "internalType": "uint256",
          "name": "timestamp",
          "type": "uint256"
        },
        {
          "internalType": "string",
          "name": "credentialId",
          "type": "string"
        },
        {
          "internalType": "string",
          "name": "revocationReason",
          "type": "string"
        }
      ],
      "stateMutability": "view",
      "type": "function"
    }
  ],
  "bytecode": "0x60806040523480156200001157600080fd5b506040516200190938038062001909833981810160405281019062000037919062000129565b336000806101000a81548173ffffffffffffffffffffffffffffffffffffffff021916908373ffffffffffffffffffffffffffffffffffffffff16021790555080600160006101000a81548173ffffffffffffffffffffffffffffffffffffffff021916908373ffffffffffffffffffffffffffffffffffffffff160217905550506200015b565b600080fd5b600073ffffffffffffffffffffffffffffffffffffffff82169050919050565b6000620000f182620000c4565b9050919050565b6200010381620000e4565b81146200010f57600080fd5b50565b6000815190506200012381620000f8565b92915050565b600060208284031215620001425762000141620000bf565b5b6000620001528482850162000112565b91505092915050565b61179e806200016b6000396000f3fe608060405234801561001057600080fd5b506004361061007d5760003560e01c80638bfc18511161005b5780638bfc1851146100ef5780638da5cb5b1461010d578063e71677931461012b578063f2fde38b146101475761007d565b80631a7d10f114610082578063493814b51461009e5780634dbf87cc146100ba575b600080fd5b61009c60048036038101906100979190610bc3565b610163565b005b6100b860048036038101906100b39190610c8b565b610235565b005b6100d460048036038101906100cf9190610ceb565b610461565b6040516100e696959493929190610deb565b60405180910390f35b6100f7610605565b6040516101049190610eb9565b60405180910390f35b61011561062b565b6040516101229190610ed4565b60405180910390f35b61014560048036038101906101409190610eef565b61064f565b005b610161600480360381019061015c9190610bc3565b610a1b565b005b60008054906101000a900473ffffffffffffffffffffffffffffffffffffffff1673ffffffffffffffffffffffffffffffffffffffff163373ffffffffffffffffffffffffffffffffffffffff16146101f1576040517f08c379a00000000000000000000000000000000000000000000000000000000081526004016101e890610faf565b60405180910390fd5b80600160006101000a81548173ffffffffffffffffffffffffffffffffffffffff021916908373ffffffffffffffffffffffffffffffffffffffff16021790555050565b60006002600085815260200190815260200160002090508060000160009054906101000a900460ff1661029d576040517f08c379a00000000000000000000000000000000000000000000000000000000081526004016102949061101b565b60405180910390fd5b8060000160019054906101000a900460ff16156102ef576040517f08c379a00000000000000000000000000000000000000000000000000000000081526004016102e690611087565b60405180910390fd5b8060000160029054906101000a900473ffffffffffffffffffffffffffffffffffffffff1673ffffffffffffffffffffffffffffffffffffffff163373ffffffffffffffffffffffffffffffffffffffff161480610398575060008054906101000a900473ffffffffffffffffffffffffffffffffffffffff1673ffffffffffffffffffffffffffffffffffffffff163373ffffffffffffffffffffffffffffffffffffffff16145b6103d7576040517f08c379a00000000000000000000000000000000000000000000000000000000081526004016103ce906110f3565b60405180910390fd5b60018160000160016101000a81548160ff021916908315150217905550828282600301918261040792919061134f565b503373ffffffffffffffffffffffffffffffffffffffff16847f1012a331928d77cc631828196503265233528edd0258ea1faceb7ee8f552e8568585426040516104539392919061145b565b60405180910390a350505050565b60008060008060608060006002600089815260200190815260200160002090508060000160009054906101000a900460ff168160000160019054906101000a900460ff168260000160029054906101000a900473ffffffffffffffffffffffffffffffffffffffff16836001015484600201856003018180546104e39061117c565b80601f016020809104026020016040519081016040528092919081815260200182805461050f9061117c565b801561055c5780601f106105315761010080835404028352916020019161055c565b820191906000526020600020905b81548152906001019060200180831161053f57829003601f168201915b5050505050915080805461056f9061117c565b80601f016020809104026020016040519081016040528092919081815260200182805461059b9061117c565b80156105e85780601f106105bd576101008083540402835291602001916105e8565b820191906000526020600020905b8154815290600101906020018083116105cb57829003601f168201915b505050505090509650965096509650965096505091939550919395565b600160009054906101000a900473ffffffffffffffffffffffffffffffffffffffff1681565b60008054906101000a900473ffffffffffffffffffffffffffffffffffffffff1681565b600160009054906101000a900473ffffffffffffffffffffffffffffffffffffffff1673ffffffffffffffffffffffffffffffffffffffff16632d33d7d5336040518263ffffffff1660e01b81526004016106aa9190610ed4565b602060405180830381865afa1580156106c7573d6000803e3d6000fd5b505050506040513d601f19601f820116820180604052508101906106eb91906114b9565b80610741575060008054906101000a900473ffffffffffffffffffffffffffffffffffffffff1673ffffffffffffffffffffffffffffffffffffffff163373ffffffffffffffffffffffffffffffffffffffff16145b610780576040517f08c379a000000000000000000000000000000000000000000000000000000000815260040161077790611532565b60405180910390fd5b6002600085815260200190815260200160002060000160009054906101000a900460ff16156107e4576040517f08c379a00000000000000000000000000000000000000000000000000000000081526004016107db9061159e565b60405180910390fd5b600073ffffffffffffffffffffffffffffffffffffffff168373ffffffffffffffffffffffffffffffffffffffff1603610853576040517f08c379a000000000000000000000000000000000000000000000000000000000815260040161084a9061160a565b60405180910390fd5b6040518060c001604052806001151581526020016000151581526020018473ffffffffffffffffffffffffffffffffffffffff16815260200142815260200183838080601f016020809104026020016040519081016040528093929190818152602001838380828437600081840152601f19601f820116905080830192505050505050508152602001604051806020016040528060008152508152506002600086815260200190815260200160002060008201518160000160006101000a81548160ff02191690831515021790555060208201518160000160016101000a81548160ff02191690831515021790555060408201518160000160026101000a81548173ffffffffffffffffffffffffffffffffffffffff021916908373ffffffffffffffffffffffffffffffffffffffff1602179055506060820151816001015560808201518160020190816109a8919061162a565b5060a08201518160030190816109be919061162a565b509050508273ffffffffffffffffffffffffffffffffffffffff16847f4e880b9217b2ef9c1523a6fc3c1a643d23c84adfe25de46065c1f7423c411a10848442604051610a0d9392919061145b565b60405180910390a350505050565b60008054906101000a900473ffffffffffffffffffffffffffffffffffffffff1673ffffffffffffffffffffffffffffffffffffffff163373ffffffffffffffffffffffffffffffffffffffff1614610aa9576040517f08c379a0000000000000000000000000000000000000000000000000000000008152600401610aa090610faf565b60405180910390fd5b600073ffffffffffffffffffffffffffffffffffffffff168173ffffffffffffffffffffffffffffffffffffffff1603610b18576040517f08c379a0000000000000000000000000000000000000000000000000000000008152600401610b0f90611748565b60405180910390fd5b806000806101000a81548173ffffffffffffffffffffffffffffffffffffffff021916908373ffffffffffffffffffffffffffffffffffffffff16021790555050565b600080fd5b600080fd5b600073ffffffffffffffffffffffffffffffffffffffff82169050919050565b6000610b9082610b65565b9050919050565b610ba081610b85565b8114610bab57600080fd5b50565b600081359050610bbd81610b97565b92915050565b600060208284031215610bd957610bd8610b5b565b5b6000610be784828501610bae565b91505092915050565b6000819050919050565b610c0381610bf0565b8114610c0e57600080fd5b50565b600081359050610c2081610bfa565b92915050565b600080fd5b600080fd5b600080fd5b60008083601f840112610c4b57610c4a610c26565b5b8235905067ffffffffffffffff811115610c6857610c67610c2b565b5b602083019150836001820283011115610c8457610c83610c30565b5b9250929050565b600080600060408486031215610ca457610ca3610b5b565b5b6000610cb286828701610c11565b935050602084013567ffffffffffffffff811115610cd357610cd2610b60565b5b610cdf86828701610c35565b92509250509250925092565b600060208284031215610d0157610d00610b5b565b5b6000610d0f84828501610c11565b91505092915050565b60008115159050919050565b610d2d81610d18565b82525050565b610d3c81610b85565b82525050565b6000819050919050565b610d5581610d42565b82525050565b600081519050919050565b600082825260208201905092915050565b60005b83811015610d95578082015181840152602081019050610d7a565b60008484015250505050565b6000601f19601f8301169050919050565b6000610dbd82610d5b565b610dc78185610d66565b9350610dd7818560208601610d77565b610de081610da1565b840191505092915050565b600060c082019050610e006000830189610d24565b610e0d6020830188610d24565b610e1a6040830187610d33565b610e276060830186610d4c565b8181036080830152610e398185610db2565b905081810360a0830152610e4d8184610db2565b9050979650505050505050565b6000819050919050565b6000610e7f610e7a610e7584610b65565b610e5a565b610b65565b9050919050565b6000610e9182610e64565b9050919050565b6000610ea382610e86565b9050919050565b610eb381610e98565b82525050565b6000602082019050610ece6000830184610eaa565b92915050565b6000602082019050610ee96000830184610d33565b92915050565b60008060008060608587031215610f0957610f08610b5b565b5b6000610f1787828801610c11565b9450506020610f2887828801610bae565b935050604085013567ffffffffffffffff811115610f4957610f48610b60565b5b610f5587828801610c35565b925092505092959194509250565b7f4e6f74206f776e65720000000000000000000000000000000000000000000000600082015250565b6000610f99600983610d66565b9150610fa482610f63565b602082019050919050565b60006020820190508181036000830152610fc881610f8c565b9050919050565b7f43726564656e7469616c20646f6573206e6f7420657869737400000000000000600082015250565b6000611005601983610d66565b915061101082610fcf565b602082019050919050565b6000602082019050818103600083015261103481610ff8565b9050919050565b7f416c7265616479207265766f6b65640000000000000000000000000000000000600082015250565b6000611071600f83610d66565b915061107c8261103b565b602082019050919050565b600060208201905081810360008301526110a081611064565b9050919050565b7f4e6f7420617574686f72697a656420746f207265766f6b650000000000000000600082015250565b60006110dd601883610d66565b91506110e8826110a7565b602082019050919050565b6000602082019050818103600083015261110c816110d0565b9050919050565b600082905092915050565b7f4e487b7100000000000000000000000000000000000000000000000000000000600052604160045260246000fd5b7f4e487b7100000000000000000000000000000000000000000000000000000000600052602260045260246000fd5b6000600282049050600182168061119457607f821691505b6020821081036111a7576111a661114d565b5b50919050565b60008190508160005260206000209050919050565b60006020601f8301049050919050565b600082821b905092915050565b60006008830261120f7fffffffffffffffffffffffffffffffffffffffffffffffffffffffffffffffff826111d2565b61121986836111d2565b95508019841693508086168417925050509392505050565b600061124c61124761124284610d42565b610e5a565b610d42565b9050919050565b6000819050919050565b61126683611231565b61127a61127282611253565b8484546111df565b825550505050565b600090565b61128f611282565b61129a81848461125d565b505050565b5b818110156112be576112b3600082611287565b6001810190506112a0565b5050565b601f821115611303576112d4816111ad565b6112dd846111c2565b810160208510156112ec578190505b6113006112f8856111c2565b83018261129f565b50505b505050565b600082821c905092915050565b600061132660001984600802611308565b1980831691505092915050565b600061133f8383611315565b9150826002028217905092915050565b6113598383611113565b67ffffffffffffffff8111156113725761137161111e565b5b61137c825461117c565b6113878282856112c2565b6000601f8311600181146113b657600084156113a4578287013590505b6113ae8582611333565b865550611416565b601f1984166113c4866111ad565b60005b828110156113ec578489013582556001820191506020850194506020810190506113c7565b868310156114095784890135611405601f891682611315565b8355505b6001600288020188555050505b50505050505050565b82818337600083830152505050565b600061143a8385610d66565b935061144783858461141f565b61145083610da1565b840190509392505050565b6000604082019050818103600083015261147681858761142e565b90506114856020830184610d4c565b949350505050565b61149681610d18565b81146114a157600080fd5b50565b6000815190506114b38161148d565b92915050565b6000602082840312156114cf576114ce610b5b565b5b60006114dd848285016114a4565b91505092915050565b7f4e6f742061207265676973746572656420697373756572000000000000000000600082015250565b600061151c601783610d66565b9150611527826114e6565b602082019050919050565b6000602082019050818103600083015261154b8161150f565b9050919050565b7f43726564656e7469616c20616c72656164792065786973747300000000000000600082015250565b6000611588601983610d66565b915061159382611552565b602082019050919050565b600060208201905081810360008301526115b78161157b565b9050919050565b7f496e76616c696420697373756572206164647265737300000000000000000000600082015250565b60006115f4601683610d66565b91506115ff826115be565b602082019050919050565b60006020820190508181036000830152611623816115e7565b9050919050565b61163382610d5b565b67ffffffffffffffff81111561164c5761164b61111e565b5b611656825461117c565b6116618282856112c2565b600060209050601f8311600181146116945760008415611682578287015190505b61168c8582611333565b8655506116f4565b601f1984166116a2866111ad565b60005b828110156116ca578489015182556001820191506020850194506020810190506116a5565b868310156116e757848901516116e3601f891682611315565b8355505b6001600288020188555050505b505050505050565b7f496e76616c696420616464726573730000000000000000000000000000000000600082015250565b6000611732600f83610d66565b915061173d826116fc565b602082019050919050565b6000602082019050818103600083015261176181611725565b905091905056fea2646970667358221220eaf955baacde578174e1cac7f93dde5671523ad8f4610f570ce8359293b01c1264736f6c63430008140033",
  "linkReferences": {},
  "deployedLinkReferences": {}
}