{
  "_format": "hh-sol-artifact-1",
  "contractName": "IssuerRegistry",
  "sourceName": "contracts/IssuerRegistry.sol",
  "abi": [
    {
      "inputs": [],
      "stateMutability": "nonpayable",
      "type": "constructor"
    },
    {
      "anonymous": false,
      "inputs": [
        {
          "indexed": true,
          "internalType": "address",
          "name": "issuer",
          "type": "address"
        },
        {
          "indexed": false,
          "internalType": "string",
          "name": "name",
          "type": "string"
        }
      ],
      "name": "IssuerRegistered",
      "type": "event"
    },
    {
      "anonymous": false,
      "inputs": [
        {
          "indexed": true,
          "internalType": "address",
          "name": "issuer",
          "type": "address"
        }
      ],
      "name": "IssuerRevoked",
      "type": "event"
    },
    {
      "inputs": [
        {
          "internalType": "address",
          "name": "issuer",
          "type": "address"
        }
      ],
      "name": "isRegisteredIssuer",
      "outputs": [
        {
          "internalType": "bool",
          "name": "",
          "type": "bool"
        }
      ],
      "stateMutability": "view",
      "type": "function"
    },
    {
      "inputs": [
        {
          "internalType": "address",
          "name": "",
          "type": "address"
        }
      ],
      "name": "issuerNames",
      "outputs": [
        {
          "internalType": "string",
          "name": "",
          "type": "string"
        }
      ],
      "stateMutability": "view",
      "type": "function"
    },
    {
      "inputs": [],
      "name": "owner",
      "outputs": [
        {
          "internalType": "address",
          "name": "",
          "type": "address"
        }
      ],
      "stateMutability": "view",
      "type": "function"
    },
    {
      "inputs": [
        {
          "internalType": "address",
          "name": "issuer",
          "type": "address"
        },
        {
          "internalType": "string",
          "name": "name",
          "type": "string"
        }
      ],
      "name": "registerIssuer",
      "outputs": [],
      "stateMutability": "nonpayable",
      "type": "function"
    },
    {
      "inputs": [
        {
          "internalType": "address",
          "name": "issuer",
          "type": "address"
        }
      ],
      "name": "revokeIssuer",
      "outputs": [],
      "stateMutability": "nonpayable",
      "type": "function"
    },
    {
      "inputs": [
        {
          "internalType": "address",
          "name": "newOwner",
          "type": "address"
        }
      ],
      "name": "transferOwnership",
      "outputs": [],
      "stateMutability": "nonpayable",
      "type": "function"
    }
  ],
  "bytecode": "0x608060405234801561001057600080fd5b50336000806101000a81548173ffffffffffffffffffffffffffffffffffffffff021916908373ffffffffffffffffffffffffffffffffffffffff160217905550610fa1806100606000396000f3fe608060405234801561001057600080fd5b50600436106100615760003560e01c8062629679146100665780632d33d7d5146100825780638da5cb5b146100b25780638dd0acb2146100d0578063e7af3bc4146100ec578063f2fde38b1461011c575b600080fd5b610080600480360381019061007b9190610837565b610138565b005b61009c60048036038101906100979190610837565b6102f0565b6040516100a9919061087f565b60405180910390f35b6100ba610346565b6040516100c791906108a9565b60405180910390f35b6100ea60048036038101906100e59190610929565b61036a565b005b61010660048036038101906101019190610837565b6105ef565b6040516101139190610a19565b60405180910390f35b61013660048036038101906101319190610837565b61068f565b005b60008054906101000a900473ffffffffffffffffffffffffffffffffffffffff1673ffffffffffffffffffffffffffffffffffffffff163373ffffffffffffffffffffffffffffffffffffffff16146101c6576040517f08c379a00000000000000000000000000000000000000000000000000000000081526004016101bd90610a87565b60405180910390fd5b600160008273ffffffffffffffffffffffffffffffffffffffff1673ffffffffffffffffffffffffffffffffffffffff16815260200190815260200160002060009054906101000a900460ff16610252576040517f08c379a000000000000000000000000000000000000000000000000000000000815260040161024990610af3565b60405180910390fd5b6000600160008373ffffffffffffffffffffffffffffffffffffffff1673ffffffffffffffffffffffffffffffffffffffff16815260200190815260200160002060006101000a81548160ff0219169083151502179055508073ffffffffffffffffffffffffffffffffffffffff167f95a4c2ae425bb769549aa1a911911ff57c17ae811ae8c8962d0b9746fcb1539760405160405180910390a250565b6000600160008373ffffffffffffffffffffffffffffffffffffffff1673ffffffffffffffffffffffffffffffffffffffff16815260200190815260200160002060009054906101000a900460ff169050919050565b60008054906101000a900473ffffffffffffffffffffffffffffffffffffffff1681565b60008054906101000a900473ffffffffffffffffffffffffffffffffffffffff1673ffffffffffffffffffffffffffffffffffffffff163373ffffffffffffffffffffffffffffffffffffffff16146103f8576040517f08c379a00000000000000000000000000000000000000000000000000000000081526004016103ef90610a87565b60405180910390fd5b600073ffffffffffffffffffffffffffffffffffffffff168373ffffffffffffffffffffffffffffffffffffffff1603610467576040517f08c379a000000000000000000000000000000000000000000000000000000000815260040161045e90610b5f565b60405180910390fd5b600160008473ffffffffffffffffffffffffffffffffffffffff1673ffffffffffffffffffffffffffffffffffffffff16815260200190815260200160002060009054906101000a900460ff16156104f4576040517f08c379a00000000000000000000000000000000000000000000000000000000081526004016104eb90610bcb565b60405180910390fd5b60018060008573ffffffffffffffffffffffffffffffffffffffff1673ffffffffffffffffffffffffffffffffffffffff16815260200190815260200160002060006101000a81548160ff0219169083151502179055508181600260008673ffffffffffffffffffffffffffffffffffffffff1673ffffffffffffffffffffffffffffffffffffffff1681526020019081526020016000209182610599929190610e3b565b508273ffffffffffffffffffffffffffffffffffffffff167fc0e782e5ce31b3a8ed34a04353667fa795030402831742c8a4b938c2c96ef03383836040516105e2929190610f47565b60405180910390a2505050565b6002602052806000526040600020600091509050805461060e90610c54565b80601f016020809104026020016040519081016040528092919081815260200182805461063a90610c54565b80156106875780601f1061065c57610100808354040283529160200191610687565b820191906000526020600020905b81548152906001019060200180831161066a57829003601f168201915b505050505081565b60008054906101000a900473ffffffffffffffffffffffffffffffffffffffff1673ffffffffffffffffffffffffffffffffffffffff163373ffffffffffffffffffffffffffffffffffffffff161461071d576040517f08c379a000000000000000000000000000000000000000000000000000000000815260040161071490610a87565b60405180910390fd5b600073ffffffffffffffffffffffffffffffffffffffff168173ffffffffffffffffffffffffffffffffffffffff160361078c576040517f08c379a000000000000000000000000000000000000000000000000000000000815260040161078390610b5f565b60405180910390fd5b806000806101000a81548173ffffffffffffffffffffffffffffffffffffffff021916908373ffffffffffffffffffffffffffffffffffffffff16021790555050565b600080fd5b600080fd5b600073ffffffffffffffffffffffffffffffffffffffff82169050919050565b6000610804826107d9565b9050919050565b610814816107f9565b811461081f57600080fd5b50565b6000813590506108318161080b565b92915050565b60006020828403121561084d5761084c6107cf565b5b600061085b84828501610822565b91505092915050565b60008115159050919050565b61087981610864565b82525050565b60006020820190506108946000830184610870565b92915050565b6108a3816107f9565b82525050565b60006020820190506108be600083018461089a565b92915050565b600080fd5b600080fd5b600080fd5b60008083601f8401126108e9576108e86108c4565b5b8235905067ffffffffffffffff811115610906576109056108c9565b5b602083019150836001820283011115610922576109216108ce565b5b9250929050565b600080600060408486031215610942576109416107cf565b5b600061095086828701610822565b935050602084013567ffffffffffffffff811115610971576109706107d4565b5b61097d868287016108d3565b92509250509250925092565b600081519050919050565b600082825260208201905092915050565b60005b838110156109c35780820151818401526020810190506109a8565b60008484015250505050565b6000601f19601f8301169050919050565b60006109eb82610989565b6109f58185610994565b9350610a058185602086016109a5565b610a0e816109cf565b840191505092915050565b60006020820190508181036000830152610a3381846109e0565b905092915050565b7f4e6f74206f776e65720000000000000000000000000000000000000000000000600082015250565b6000610a71600983610994565b9150610a7c82610a3b565b602082019050919050565b60006020820190508181036000830152610aa081610a64565b9050919050565b7f4e6f742072656769737465726564000000000000000000000000000000000000600082015250565b6000610add600e83610994565b9150610ae882610aa7565b602082019050919050565b60006020820190508181036000830152610b0c81610ad0565b9050919050565b7f496e76616c696420616464726573730000000000000000000000000000000000600082015250565b6000610b49600f83610994565b9150610b5482610b13565b602082019050919050565b60006020820190508181036000830152610b7881610b3c565b9050919050565b7f416c726561647920726567697374657265640000000000000000000000000000600082015250565b6000610bb5601283610994565b9150610bc082610b7f565b602082019050919050565b60006020820190508181036000830152610be481610ba8565b9050919050565b600082905092915050565b7f4e487b7100000000000000000000000000000000000000000000000000000000600052604160045260246000fd5b7f4e487b7100000000000000000000000000000000000000000000000000000000600052602260045260246000fd5b60006002820490506001821680610c6c57607f821691505b602082108103610c7f57610c7e610c25565b5b50919050565b60008190508160005260206000209050919050565b60006020601f8301049050919050565b600082821b905092915050565b600060088302610ce77fffffffffffffffffffffffffffffffffffffffffffffffffffffffffffffffff82610caa565b610cf18683610caa565b95508019841693508086168417925050509392505050565b6000819050919050565b6000819050919050565b6000610d38610d33610d2e84610d09565b610d13565b610d09565b9050919050565b6000819050919050565b610d5283610d1d565b610d66610d5e82610d3f565b848454610cb7565b825550505050565b600090565b610d7b610d6e565b610d86818484610d49565b505050565b5b81811015610daa57610d9f600082610d73565b600181019050610d8c565b5050565b601f821115610def57610dc081610c85565b610dc984610c9a565b81016020851015610dd8578190505b610dec610de485610c9a565b830182610d8b565b50505b505050565b600082821c905092915050565b6000610e1260001984600802610df4565b1980831691505092915050565b6000610e2b8383610e01565b9150826002028217905092915050565b610e458383610beb565b67ffffffffffffffff811115610e5e57610e5d610bf6565b5b610e688254610c54565b610e73828285610dae565b6000601f831160018114610ea25760008415610e90578287013590505b610e9a8582610e1f565b865550610f02565b601f198416610eb086610c85565b60005b82811015610ed857848901358255600182019150602085019450602081019050610eb3565b86831015610ef55784890135610ef1601f891682610e01565b8355505b6001600288020188555050505b50505050505050565b82818337600083830152505050565b6000610f268385610994565b9350610f33838584610f0b565b610f3c836109cf565b840190509392505050565b60006020820190508181036000830152610f62818486610f1a565b9050939250505056fea2646970667358221220f4bab356e7859c67b3e6e9b4b412cfd4f9f3b3735e29a18722b82f8d6b54bf2264736f6c63430008140033",
  "linkReferences": {},
  "deployedLinkReferences": {}
}